S01100004750494F5F524551372E7372656366
S11300000C943E000C9448000C9448000C94480056
S11300100C9448000C9448000C9448000C9448003C
S11300200C9448000C9448000C9448000C9448002C
S11300300C9448000C9448000C9448000C9448001C
S11300400C9448000C9448000C9448000C9448000C
S11300500C94480015011B01210127012D013301D6
S113006039013F0145014B015C01620168016E01E8
S113007074017A01800186018C01920111241FBE52
S1130080CFE5D8E0DEBFCDBF0E94AA000C94FE01EC
S11300900C94000041111CC0813059F028F08230CA
S11300A069F0833081F008958AB3609568236ABB50
S11300B0089587B36095682367BB089584B36095FA
S11300C0682364BB089581B36095682361BB089578
S11300D04F3FB9F4813051F028F0823059F0833029
S11300E069F008958AB3682B6ABB089587B3682BB7
S11300F067BB089584B3682B64BB089581B3682BF0
S113010061BB0895813071F028F0823099F083301A
S1130110C9F008958BB3962F909589234623482BD5
S11301204BBB089588B3962F909589234623482B7B
S113013048BB089585B3962F909589234623482B71
S113014045BB089582B3962F909589234623482B67
S113015042BB089580E00E94DF0081E00E94DF003E
S113016000E02BC0612F80E00E94040180E00E9427
S1130170980164E670E080E090E00E94BA0180E0BB
S11301800E94A901602F81E00E94040181E00E9485
S1130190980164E670E080E090E00E94BA0181E09A
S11301A00E94A9012197F1F61F5F1A3019F0C5E0EA
S11301B0D0E0D8CF0F5F0A3099F210E0F8CF88234F
S11301C019F0813089F008954FEF6FE081E00E94CB
S11301D04A004FEF64E083E00E944A0040E06FE091
S11301E081E00E94820008954FEF6FE081E00E9459
S11301F04A004FEF68E083E00E944A0040E06FE06D
S113020081E00E9482000895882321F0813009F45E
S113021048C00895862F90E08A30910508F087C081
S1130220FC01E65DFF4F0C94F80140E06FE081E0D3
S11302300E948200089541E06FE081E00E94820004
S1130240089542E06FE081E00E948200089543E057
S11302506FE081E00E948200089544E06FE081E055
S11302600E948200089545E06FE081E00E948200D0
S1130270089546E06FE081E00E948200089547E01F
S11302806FE081E00E948200089548E06FE081E021
S11302900E948200089549E06FE081E00E9482009C
S11302A00895862F90E08A30910508F040C0FC0143
S11302B0EC5CFF4F0C94F80140E06FE081E00E9499
S11302C08200089541E06FE081E00E948200089579
S11302D042E06FE081E00E948200089543E06FE015
S11302E081E00E948200089544E06FE081E00E9472
S11302F08200089545E06FE081E00E948200089545
S113030046E06FE081E00E948200089547E06FE0DC
S113031081E00E948200089548E06FE081E00E943D
S11303208200089549E06FE081E00E948200089510
S1130330882319F0813039F008954FEF64E083E0A9
S11303400E94820008954FEF68E083E00E948200DB
S11303500895882319F0813039F0089540E064E06D
S113036083E00E948200089540E068E083E00E94F8
S113037082000895CF92DF92EF92FF92CF93DF93A2
S113038000D000D0CDB7DEB76B017C0119821A8290
S11303901B821C82672B682B692BC9F41EC08981C0
S11303A09A81AB81BC810196A11DB11D89839A8379
S11303B0AB83BC832150310991F74F5F5F4F6F4F7F
S11303C07F4FC416D506E606F70621F406C040E0C2
S11303D050E0BA0129E431E0E2CF0F900F900F9082
S11303E00F90DF91CF91FF90EF90DF90CF90089521
S11303F0EE0FFF1F0590F491E02D0994F894FFCFC0
S9030000FC
