:100000000C943E000C9448000C9448000C9448005A
:100010000C9448000C9448000C9448000C94480040
:100020000C9448000C9448000C9448000C94480030
:100030000C9448000C9448000C9448000C94480020
:100040000C9448000C9448000C9448000C94480010
:100050000C944800110117011D01230129012F01F2
:1000600035013B014101470158015E0164016A010C
:10007000700176017C01820188018E0111241FBE6E
:10008000CFE5D8E0DEBFCDBF0E94AA000C942802C5
:100090000C94000041111CC0813059F028F08230CE
:1000A00069F0833081F008958AB3609568236ABB54
:1000B000089587B36095682367BB089584B36095FE
:1000C000682364BB089581B36095682361BB08957C
:1000D0004F3FB9F4813051F028F0823059F083302D
:1000E00069F008958AB3682B6ABB089587B3682BBB
:1000F00067BB089584B3682B64BB089581B3682BF4
:1001000061BB0895813071F028F0823099F083301E
:10011000C9F008958BB3962F909589234623482BD9
:100120004BBB089588B3962F909589234623482B7F
:1001300048BB089585B3962F909589234623482B75
:1001400045BB089582B3962F909589234623482B6B
:1001500042BB089580E00E94DB0081E00E94DB004A
:1001600000E027C0612F80E00E94000180E00E9433
:10017000940184E690E00E94B60180E00E94A5010F
:10018000602F81E00E94000181E00E94940184E6DA
:1001900090E00E94B60181E00E94A501219711F72D
:1001A0001F5F1A3019F0C5E0D0E0DCCF0F5F0A30D6
:1001B000B9F210E0F8CF882319F0813089F0089562
:1001C0004FEF6FE081E00E944A004FEF64E083E070
:1001D0000E944A0040E06FE081E00E9482000895A2
:1001E0004FEF6FE081E00E944A004FEF68E083E04C
:1001F0000E944A0040E06FE081E00E948200089582
:10020000882321F0813009F448C00895862F90E0BA
:100210008A30910508F087C0FC01E65DFF4F0C9421
:10022000220240E06FE081E00E948200089541E0F8
:100230006FE081E00E948200089542E06FE081E07B
:100240000E948200089543E06FE081E00E948200F6
:10025000089544E06FE081E00E948200089545E047
:100260006FE081E00E948200089546E06FE081E047
:100270000E948200089547E06FE081E00E948200C2
:10028000089548E06FE081E00E948200089549E00F
:100290006FE081E00E9482000895862F90E08A300E
:1002A000910508F040C0FC01EC5CFF4F0C94220269
:1002B00040E06FE081E00E948200089541E06FE03D
:1002C00081E00E948200089542E06FE081E00E9498
:1002D0008200089543E06FE081E00E94820008956B
:1002E00044E06FE081E00E948200089545E06FE005
:1002F00081E00E948200089546E06FE081E00E9464
:100300008200089547E06FE081E00E948200089536
:1003100048E06FE081E00E948200089549E06FE0CC
:1003200081E00E9482000895882319F0813039F01D
:1003300008954FEF64E083E00E94820008954FEF3C
:1003400068E083E00E9482000895882319F08130DC
:1003500039F0089540E064E083E00E94820008954F
:1003600040E068E083E00E9482000895CF92DF922F
:10037000EF92FF920F931F93CF93DF9300D000D0A3
:10038000CDB7DEB719821A821B821C8228EE33E0B9
:1003900040E050E00E94000269017A018FEFC81A24
:1003A000D80AE80AF80AC9F41EC089819A81AB818B
:1003B000BC810196A11DB11D89839A83AB83BC8347
:1003C0004150510991F70F5F1F4F2F4F3F4F0C15B1
:1003D0001D052E053F0520F006C000E010E0980145
:1003E00045E050E0E2CF0F900F900F900F90DF911B
:1003F000CF911F910F91FF90EF90DF90CF900895D4
:10040000A1E21A2EAA1BBB1BFD010DC0AA1FBB1F18
:10041000EE1FFF1FA217B307E407F50720F0A21B8A
:10042000B30BE40BF50B661F771F881F991F1A94F7
:1004300069F760957095809590959B01AC01BD0121
:10044000CF010895EE0FFF1F0590F491E02D099460
:04045000F894FFCF4E
:00000001FF
