S01100004750494F5F524551392E7372656364
S11300000C942A000C943C000C943C000C943C008E
S11300100C943C000C943C000C943C000C943C006C
S11300200C943C000C943C000C943C000C943C005C
S11300300C943C000C943C000C943C000C943C004C
S11300400C943C000C943C000C943C000C943C003C
S11300500C943C0011241FBECFE5D8E0DEBFCDBF19
S113006020E0A0E6B0E001C01D92A136B207E1F79E
S11300700E9435010C947F010C94000041111CC0B6
S1130080813059F028F0823069F0833081F008958E
S11300908AB3609568236ABB089587B36095682323
S11300A067BB089584B36095682364BB089581B3E6
S11300B06095682361BB08954F3FB9F4813051F0D6
S11300C028F0823059F0833069F008958AB3682BA0
S11300D06ABB089587B3682B67BB089584B3682B04
S11300E064BB089581B3682B61BB0895813071F0BE
S11300F028F0823099F08330C9F008958BB3962F9D
S1130100909589234623482B4BBB089588B3962F9B
S1130110909589234623482B48BB089585B3962F91
S1130120909589234623482B45BB089582B3962F87
S1130130909589234623482B42BB0895813061F072
S113014028F0823079F0833099F008954FEF60E120
S113015081E00E943E0008954FEF60E281E00E943A
S11301603E0008954FEF60E481E00E943E00089550
S11301704FEF60E881E00E943E000895813061F015
S113018028F0823079F0833099F008954FEF60E1E0
S113019081E00E94760008954FEF60E281E00E94C2
S11301A0760008954FEF60E481E00E9476000895A0
S11301B04FEF60E881E00E9476000895813061F09D
S11301C028F0823079F0833099F0089540E060E1BE
S11301D081E00E947600089540E060E281E00E94A0
S11301E07600089540E060E481E00E94760008957E
S11301F040E060E881E00E9476000895809160000C
S11302008130A1F018F0823009F1089582E00E9453
S1130210DE0081E00E94BE0068EE73E080E090E0C2
S11302200E94410181E080936000089581E00E9472
S1130230DE0083E00E94BE0068EE73E080E090E0A0
S11302400E94410182E080936000089583E00E944F
S1130250DE0082E00E94BE0068EE73E080E090E081
S11302600E94410110926000089581E00E949E0066
S113027082E00E949E0083E00E949E000E94FE0095
S1130280FDCFCF92DF92EF92FF92CF93DF9300D016
S113029000D0CDB7DEB76B017C0119821A821B82B4
S11302A01C82672B682B692BC9F41EC089819A8133
S11302B0AB81BC810196A11DB11D89839A83AB8357
S11302C0BC832150310991F74F5F5F4F6F4F7F4FD0
S11302D0C416D506E606F70621F406C040E050E051
S11302E0BA012DE431E0E2CF0F900F900F900F9000
S11302F0DF91CF91FF90EF90DF90CF900895F89425
S1050300FFCF29
S9030000FC
