:100000000C942A000C9434000C9434000C943400AA
:100010000C9434000C9434000C9434000C94340090
:100020000C9434000C9434000C9434000C94340080
:100030000C9434000C9434000C9434000C94340070
:100040000C9434000C9434000C9434000C94340060
:100050000C94340011241FBECFE5D8E0DEBFCDBF25
:100060000E9411010C94A1020C94000041111CC0CB
:10007000813059F028F0823069F0833081F00895A2
:100080008AB3609568236ABB089587B36095682337
:1000900067BB089584B36095682364BB089581B3FA
:1000A0006095682361BB08954F3FB9F4813051F0EA
:1000B00028F0823059F0833069F008958AB3682BB4
:1000C0006ABB089587B3682B67BB089584B3682B18
:1000D00064BB089581B3682B61BB0895813071F0D2
:1000E00028F0823099F08330C9F008958BB3962FB1
:1000F000909589234623482B4BBB089588B3962FB0
:10010000909589234623482B48BB089585B3962FA5
:10011000909589234623482B45BB089582B3962F9B
:10012000909589234623482B42BB0895813049F09E
:1001300028F0823049F0833051F00CC089B3682335
:100140000AC086B3682307C083B3682304C080B3A2
:10015000682301C06FEF81E0611101C080E08195EB
:100160000895813061F028F0823079F0833099F081
:1001700008954FEF60E181E00E94360008954FEF4F
:1001800060E281E00E94360008954FEF60E481E074
:100190000E94360008954FEF60E881E00E9436002B
:1001A0000895813061F028F0823079F0833099F041
:1001B00008954FEF60E181E00E946E0008954FEFD7
:1001C00060E281E00E946E0008954FEF60E481E0FC
:1001D0000E946E0008954FEF60E881E00E946E007B
:1001E0000895813061F028F0823079F0833099F001
:1001F000089540E060E181E00E946E00089540E0D3
:1002000060E281E00E946E00089540E060E481E0D9
:100210000E946E00089540E060E881E00E946E0058
:10022000089580E00E94B10080E00E946601C1E074
:1002300080E00E949A01823009F044C0CF5FC1F390
:1002400080E00E94D1006AEA70E080E090E00E94C5
:10025000630280E00E949A01823009F0C1506AEA8C
:1002600070E080E090E00E94630280E00E949A01CA
:10027000823009F4CF5F6AEA70E080E090E00E948B
:10028000630280E00E949A01823009F4CF5F6AEA3B
:1002900070E080E090E00E94630280E00E949A019A
:1002A000823009F4CF5F6AEA70E080E090E00E945B
:1002B000630280E00E949A01823009F4CF5FC1118D
:1002C000BFCFB6CF80E00E94F100B2CF813089F07D
:1002D00028F08230C9F0833011F1089540E060E1E8
:1002E00082E00E9436004FEF60E182E00E946E00E3
:1002F000089540E064E081E00E9436004FEF64E042
:1003000081E00E946E00089540E064E080E00E9479
:1003100036004FEF64E080E00E946E00089540E0F8
:1003200068E080E00E9436004FEF68E080E00E94C5
:100330006E000895CF93DF931F92CDB7DEB7813063
:1003400091F138F0823009F458C0833009F47EC04E
:10035000A5C060E182E00E949600898389818111B5
:1003600011C06EE170E080E090E00E94630260E105
:1003700082E00E94960089838981882309F490C0D5
:1003800080E09DC06EE170E080E090E00E9463023A
:1003900060E182E00E94960089838981882309F4C4
:1003A00081C080E08CC064E081E00E949600898377
:1003B0008981811111C06EE170E080E090E00E94BF
:1003C000630264E081E00E9496008983898188232A
:1003D00009F46AC080E073C06EE170E080E090E0F4
:1003E0000E94630264E081E00E9496008983898113
:1003F000882309F45BC080E062C064E080E00E9472
:10040000960089838981811111C06EE170E080E0DE
:1004100090E00E94630264E080E00E94960089837D
:100420008981882309F444C080E049C06EE170E00E
:1004300080E090E00E94630264E080E00E94960009
:10044000898389818823B1F180E039C068E080E048
:100450000E94960089838981811110C06EE170E04D
:1004600080E090E00E94630268E080E00E949600D5
:1004700089838981882301F180E021C06EE170E0E9
:1004800080E090E00E94630268E080E00E949600B5
:1004900089838981882391F080E011C08FEF0FC09C
:1004A00082E00DC082E00BC082E009C082E007C09C
:1004B00082E005C082E003C082E001C082E00F90CC
:1004C000DF91CF910895CF92DF92EF92FF92CF9379
:1004D000DF9300D000D0CDB7DEB76B017C0119826D
:1004E0001A821B821C82672B682B692BC9F41EC0E1
:1004F00089819A81AB81BC810196A11DB11D89833F
:100500009A83AB83BC832150310991F74F5F5F4FD2
:100510006F4F7F4FC416D506E606F70621F406C0D6
:1005200040E050E0BA0129E431E0E2CF0F900F90B3
:100530000F900F90DF91CF91FF90EF90DF90CF90D1
:060540000895F894FFCFBE
:00000001FF
